:020000040800F2
:100000000030002089040008D9040008D904000841
:10001000D9040008D9040008D90400080000000031
:10002000000000000000000000000000D9040008EB
:10003000D904000800000000D9040008D904000811
:10004000D9040008D9040008D9040008D90400081C
:10005000D9040008D9040008D9040008D90400080C
:10006000D9040008D9040008D9040008D9040008FC
:10007000FD030008D9040008D9040008D9040008C9
:10008000D9040008D9040008D9040008D9040008DC
:10009000D9040008D9040008D9040008D9040008CC
:1000A000D9040008D9040008D9040008D9040008BC
:1000B000D90400081504000800000000D904000855
:1000C000D90400080000000000000000D904000866
:1000D00000000000D9040008D9040008D904000871
:1000E000D9040008D9040008000000000000000046
:1000F0000000000000000000000000000000000000
:1001000000000000000000000000000000000000EF
:100110000000000000000000D9040008D904000815
:1001200000000000000000000000000000000000CF
:1001300000000000000000000000000000000000BF
:10014000D9040008D904000800000000D904000800
:10015000D9040008D9040008D9040008D90400080B
:10016000D9040008D90400080000000000000000C5
:10017000000000000000000000000000000000007F
:0801800000000000D904000892
:100188000348044B834202D0034B03B1184770471E
:10019800000000200000002000000000054806497B
:1001A800091A891001EBD171491002D0034B03B130
:1001B80018477047000000200000002000000000E1
:1001C80010B5064C237843B9FFF7DAFF044B13B197
:1001D8000448AFF300800123237010BD0000002005
:1001E800000000002405000808B5054B1BB10549AF
:1001F8000548AFF30080BDE80840FFF7CFBF00BF58
:1002080000000000040000202405000808B500F0E4
:100218000BF800F057F800F061F800F077F800F0FC
:10022800BBF800F095F8FEE7244B00225A601A68E4
:1002380042F480321A60214B1B6813F4003FFAD055
:100248001F4A136843F0040313601C4B5A685A6032
:100258005A6842F480625A605A685A605A6822F4AE
:1002680070125A605A6822F480325A605A6822F42E
:1002780000325A605A6842F480325A605A685A60AA
:100288005A6842F4E0125A601A6842F080721A60A2
:100298000A4B1B6813F0007FFAD0084B5A6822F00B
:1002A80003025A605A6842F002025A60034B5B68C4
:1002B80003F00C03082BF9D1704700BF001002406F
:1002C80000200240044B5A6942F400325A615A69CC
:1002D80042F480225A617047001002404FF0904368
:1002E8001A6822F440621A601A6842F480621A603E
:1002F8005A6822F020025A609A6842F003029A6013
:10030800DA6842F40062DA60704700000F4B00229E
:100318001A601A6822F001021A601A6842F0020292
:100328001A605A6822F001025A609A6842F0030281
:100338009A60DA6822F00102DA60DA6822F00202D2
:10034800DA601A6A42F002021A6270470004004832
:100358000E4AD36943F00203D3610D4B00229A621F
:1003680040F60F61D962DA635A621A621A6A42F475
:1003780080721A626822DA6140F60102DA6081222C
:100388001A60044B4FF000521A6070470010024088
:100398000004004000E100E00023772B05DC104A50
:1003A8003D2122F813100133F7E70E4B5B6913F078
:1003B800010F04D10B4A536943F0010353610A4BFF
:1003C80000221A60094A9A60054ADA6078225A605F
:1003D80043F2B2521A60064B4FF480521A607047CB
:1003E80020000020001002401C0002403C04004095
:1003F80000E100E0034B20225A60034B01221A60FF
:10040800704700BF000002401C000020124B1B690F
:1004180013F0010F1FD0114B1B6843B10E4B1A6824
:1004280022F001021A60DA6822F00102DA600A4B4F
:100438001A6922F001021A6100225A62DA6A40F649
:100448000E639A4204D8064A136843F00103136006
:10045800014B5922DA627047000400401C0000205A
:100468001C000240054BD3F8882042F47002C3F800
:1004780088204FF000629A60704700BF00ED00E0EE
:10048800DFF834D0002103E00C4B5B5843500431B3
:100498000B480C4B42189A42F6D30B4A02E0002351
:1004A80042F8043B094B9A42F9D3FFF7DBFF00F00F
:1004B80011F8FFF7ABFEFEE7003000204405000806
:1004C8000000002000000020000000201001002093
:1004D800FEE7000070B50D4D0D4C641BA4100026FE
:1004E800A64209D10B4D0C4C00F018F8641BA4105F
:1004F8000026A64205D170BD55F8043B9847013641
:10050800EEE755F8043B98470136F2E73C0500084A
:100518003C0500083C05000840050008F8B500BF88
:10052800F8BC08BC9E467047F8B500BFF8BC08BCCC
:040538009E46704724
:04053C00F1010008C1
:04054000C9010008E5
:040000050800048962
:00000001FF
